{
  "abi": [
    {
      "inputs": [
        {
          "internalType": "uint256",
          "name": "",
          "type": "uint256"
        }
      ],
      "name": "aggregators",
      "outputs": [
        {
          "internalType": "address",
          "name": "",
          "type": "address"
        }
      ],
      "stateMutability": "view",
      "type": "function"
    },
    {
      "inputs": [
        {
          "internalType": "address",
          "name": "",
          "type": "address"
        }
      ],
      "name": "deviceType",
      "outputs": [
        {
          "internalType": "string",
          "name": "",
          "type": "string"
        }
      ],
      "stateMutability": "view",
      "type": "function"
    },
    {
      "inputs": [],
      "name": "getAggregators",
      "outputs": [
        {
          "internalType": "address[]",
          "name": "",
          "type": "address[]"
        }
      ],
      "stateMutability": "view",
      "type": "function"
    },
    {
      "inputs": [],
      "name": "getScorers",
      "outputs": [
        {
          "internalType": "address[]",
          "name": "",
          "type": "address[]"
        }
      ],
      "stateMutability": "view",
      "type": "function"
    },
    {
      "inputs": [],
      "name": "getTrainers",
      "outputs": [
        {
          "internalType": "address[]",
          "name": "",
          "type": "address[]"
        }
      ],
      "stateMutability": "view",
      "type": "function"
    },
    {
      "inputs": [
        {
          "internalType": "string",
          "name": "_deviceType",
          "type": "string"
        }
      ],
      "name": "registerDevice",
      "outputs": [],
      "stateMutability": "nonpayable",
      "type": "function"
    },
    {
      "inputs": [
        {
          "internalType": "uint256",
          "name": "",
          "type": "uint256"
        }
      ],
      "name": "scorers",
      "outputs": [
        {
          "internalType": "address",
          "name": "",
          "type": "address"
        }
      ],
      "stateMutability": "view",
      "type": "function"
    },
    {
      "inputs": [
        {
          "internalType": "uint256",
          "name": "",
          "type": "uint256"
        }
      ],
      "name": "trainers",
      "outputs": [
        {
          "internalType": "address",
          "name": "",
          "type": "address"
        }
      ],
      "stateMutability": "view",
      "type": "function"
    }
  ],
  "bytecode": {
    "object": "0x608060405234801561001057600080fd5b506108b0806100206000396000f3fe608060405234801561001057600080fd5b50600436106100885760003560e01c80637ee7f7d11161005b5780637ee7f7d1146100fa57806389f37407146101025780638e0a94d114610115578063cf4b985e1461012857600080fd5b806320adc4d91461008d5780634438a650146100bd5780634958164a146100dd57806359b34270146100f2575b600080fd5b6100a061009b366004610586565b61013d565b6040516001600160a01b0390911681526020015b60405180910390f35b6100d06100cb36600461059f565b610167565b6040516100b491906105cf565b6100e5610201565b6040516100b4919061061d565b6100e5610263565b6100e56102c3565b6100a0610110366004610586565b610323565b6100a0610123366004610586565b610333565b61013b610136366004610680565b610343565b005b6001818154811061014d57600080fd5b6000918252602090912001546001600160a01b0316905081565b6000602081905290815260409020805461018090610731565b80601f01602080910402602001604051908101604052809291908181526020018280546101ac90610731565b80156101f95780601f106101ce576101008083540402835291602001916101f9565b820191906000526020600020905b8154815290600101906020018083116101dc57829003601f168201915b505050505081565b6060600180548060200260200160405190810160405280929190818152602001828054801561025957602002820191906000526020600020905b81546001600160a01b0316815260019091019060200180831161023b575b5050505050905090565b60606003805480602002602001604051908101604052809291908181526020018280548015610259576020028201919060005260206000209081546001600160a01b0316815260019091019060200180831161023b575050505050905090565b60606002805480602002602001604051908101604052809291908181526020018280548015610259576020028201919060005260206000209081546001600160a01b0316815260019091019060200180831161023b575050505050905090565b6003818154811061014d57600080fd5b6002818154811061014d57600080fd5b805160208201207f769505ba230a2f63b6099e94a203814a92ec2720b7df20587ced5c480404e8df148061039c5750805160208201207fe124d7cc79a19705865fa21b784ba187cd393559e960c0c071132cb60354d1a3145b806103cc5750805160208201207ffe46031c6eac5707f8359e18efe24769fa85fb713b82bcf703631e0740992935145b6104125760405162461bcd60e51b8152602060048201526013602482015272496e76616c696420646576696365207479706560681b604482015260640160405180910390fd5b805160208201207f896afa45dcf5d09c49f6616b5dfc7eb56d13d8df4820dfa78312a3b7fbfb172101610485576001805480820182556000919091527fb10e2d527612073b26eecdfd717e6a320cf44b4afac2b0732d9fcbe2b7fa0cf60180546001600160a01b03191633179055610569565b805160208201207f1edb2833865e68fa79a05de487b45e7832c6caa6169f3f3f8eecd349fcab2e5d016104f957600280546001810182556000919091527f405787fa12a823e0f2b7631cc41b3ba8828b3321ca811111fa75cd3aa3bb5ace0180546001600160a01b03191633179055610569565b805160208201207f01b9fce39153a8f807ca61e7101db896057a048ec47d4308fc9ce1f8bf66d6cb0161056957600380546001810182556000919091527fc2575a0e9e593c00f959f8c92f12db2869c3395a3b0502d05e2516446f71f85b0180546001600160a01b031916331790555b33600090815260208190526040902061058282826107ba565b5050565b60006020828403121561059857600080fd5b5035919050565b6000602082840312156105b157600080fd5b81356001600160a01b03811681146105c857600080fd5b9392505050565b600060208083528351808285015260005b818110156105fc578581018301518582016040015282016105e0565b506000604082860101526040601f19601f8301168501019250505092915050565b6020808252825182820181905260009190848201906040850190845b8181101561065e5783516001600160a01b031683529284019291840191600101610639565b50909695505050505050565b634e487b7160e01b600052604160045260246000fd5b60006020828403121561069257600080fd5b813567ffffffffffffffff808211156106aa57600080fd5b818401915084601f8301126106be57600080fd5b8135818111156106d0576106d061066a565b604051601f8201601f19908116603f011681019083821181831017156106f8576106f861066a565b8160405282815287602084870101111561071157600080fd5b826020860160208301376000928101602001929092525095945050505050565b600181811c9082168061074557607f821691505b60208210810361076557634e487b7160e01b600052602260045260246000fd5b50919050565b601f8211156107b557600081815260208120601f850160051c810160208610156107925750805b601f850160051c820191505b818110156107b15782815560010161079e565b5050505b505050565b815167ffffffffffffffff8111156107d4576107d461066a565b6107e8816107e28454610731565b8461076b565b602080601f83116001811461081d57600084156108055750858301515b600019600386901b1c1916600185901b1785556107b1565b600085815260208120601f198616915b8281101561084c5788860151825594840194600190910190840161082d565b508582101561086a5787850151600019600388901b60f8161c191681555b5050505050600190811b0190555056fea2646970667358221220cd7a32ed84a9903c66fae83fa1ca0d3fc126559c3a5740fe43c12829e89a470764736f6c63430008140033",
    "linkReferences": {}
  },
  "methodIdentifiers": {
    "aggregators(uint256)": "8e0a94d1",
    "deviceType(address)": "4438a650",
    "getAggregators()": "7ee7f7d1",
    "getScorers()": "59b34270",
    "getTrainers()": "4958164a",
    "registerDevice(string)": "cf4b985e",
    "scorers(uint256)": "89f37407",
    "trainers(uint256)": "20adc4d9"
  },
  "id": 13
}