{
  "abi": [
    {
      "inputs": [],
      "stateMutability": "nonpayable",
      "type": "constructor"
    },
    {
      "anonymous": false,
      "inputs": [
        {
          "indexed": false,
          "internalType": "enum RoundControlContract.RoundPhase",
          "name": "newPhase",
          "type": "uint8"
        }
      ],
      "name": "PhaseChanged",
      "type": "event"
    },
    {
      "anonymous": false,
      "inputs": [],
      "name": "RoundStarted",
      "type": "event"
    },
    {
      "anonymous": false,
      "inputs": [],
      "name": "RoundTerminated",
      "type": "event"
    },
    {
      "inputs": [],
      "name": "advanceToNextPhase",
      "outputs": [],
      "stateMutability": "nonpayable",
      "type": "function"
    },
    {
      "inputs": [],
      "name": "currentPhase",
      "outputs": [
        {
          "internalType": "enum RoundControlContract.RoundPhase",
          "name": "",
          "type": "uint8"
        }
      ],
      "stateMutability": "view",
      "type": "function"
    },
    {
      "inputs": [],
      "name": "round",
      "outputs": [
        {
          "internalType": "uint256",
          "name": "",
          "type": "uint256"
        }
      ],
      "stateMutability": "view",
      "type": "function"
    },
    {
      "inputs": [],
      "name": "roundOngoing",
      "outputs": [
        {
          "internalType": "bool",
          "name": "",
          "type": "bool"
        }
      ],
      "stateMutability": "view",
      "type": "function"
    },
    {
      "inputs": [],
      "name": "startRound",
      "outputs": [],
      "stateMutability": "nonpayable",
      "type": "function"
    },
    {
      "inputs": [],
      "name": "terminateRound",
      "outputs": [],
      "stateMutability": "nonpayable",
      "type": "function"
    }
  ],
  "bytecode": {
    "object": "0x60806040526000805534801561001457600080fd5b506001805461ffff1916905561040a8061002f6000396000f3fe608060405234801561001057600080fd5b50600436106100625760003560e01c8063055ad42e14610067578063146ca5311461008a57806355e3f086146100a15780639692b062146100ab578063bb765e79146100b3578063fb3f4696146100d5575b600080fd5b6001546100749060ff1681565b6040516100819190610364565b60405180910390f35b61009360005481565b604051908152602001610081565b6100a96100dd565b005b6100a9610188565b6001546100c590610100900460ff1681565b6040519015158152602001610081565b6100a9610209565b600154610100900460ff161561013a5760405162461bcd60e51b815260206004820152601960248201527f526f756e6420697320616c7265616479206f6e676f696e672e0000000000000060448201526064015b60405180910390fd5b6001805461ff001916610100179055600080549080610158836103a2565b90915550506040517fca85f39c3f1adb106efb66e028812359846364ba8d9007a1e25d51305b0f350090600090a1565b600154610100900460ff166101d35760405162461bcd60e51b8152602060048201526011602482015270526f756e64206e6f74206f6e676f696e6760781b6044820152606401610131565b6001805461ff00191690556040517f1511e0ecb62e74bd6cb0a253028ba4a8f871602e906db42ce66e72c324f89c5690600090a1565b600154610100900460ff166102545760405162461bcd60e51b8152602060048201526011602482015270526f756e64206e6f74206f6e676f696e6760781b6044820152606401610131565b600360015460ff16600381111561026d5761026d61034e565b036102ba5760405162461bcd60e51b815260206004820152601860248201527f526f756e6420616c7265616479207465726d696e6174656400000000000000006044820152606401610131565b60015460ff1660038111156102d1576102d161034e565b6102dc9060016103bb565b60038111156102ed576102ed61034e565b6001805460ff1916818360038111156103085761030861034e565b02179055506001546040517fa6dcc92f45df25789d5639b7a0c97ba1edf3bb1c0b5dd3376fd96a0db87c4642916103449160ff90911690610364565b60405180910390a1565b634e487b7160e01b600052602160045260246000fd5b602081016004831061038657634e487b7160e01b600052602160045260246000fd5b91905290565b634e487b7160e01b600052601160045260246000fd5b6000600182016103b4576103b461038c565b5060010190565b808201808211156103ce576103ce61038c565b9291505056fea26469706673582212207e8cdd21a8ee402b8935f7962ab64267a82dd1f338b727786504b96d4b07094a64736f6c63430008140033",
    "linkReferences": {}
  },
  "methodIdentifiers": {
    "advanceToNextPhase()": "fb3f4696",
    "currentPhase()": "055ad42e",
    "round()": "146ca531",
    "roundOngoing()": "bb765e79",
    "startRound()": "55e3f086",
    "terminateRound()": "9692b062"
  },
  "id": 14
}