{
  "abi": [
    {
      "anonymous": false,
      "inputs": [
        {
          "indexed": false,
          "internalType": "uint256",
          "name": "round",
          "type": "uint256"
        },
        {
          "indexed": false,
          "internalType": "address",
          "name": "scorer",
          "type": "address"
        },
        {
          "indexed": false,
          "internalType": "address",
          "name": "model",
          "type": "address"
        },
        {
          "indexed": false,
          "internalType": "uint256",
          "name": "score",
          "type": "uint256"
        }
      ],
      "name": "ScoreSubmitted",
      "type": "event"
    },
    {
      "inputs": [
        {
          "internalType": "uint256",
          "name": "",
          "type": "uint256"
        },
        {
          "internalType": "address",
          "name": "",
          "type": "address"
        },
        {
          "internalType": "address",
          "name": "",
          "type": "address"
        }
      ],
      "name": "roundScores",
      "outputs": [
        {
          "internalType": "uint256",
          "name": "",
          "type": "uint256"
        }
      ],
      "stateMutability": "view",
      "type": "function"
    },
    {
      "inputs": [
        {
          "internalType": "uint256",
          "name": "round",
          "type": "uint256"
        },
        {
          "internalType": "address",
          "name": "model",
          "type": "address"
        },
        {
          "internalType": "uint256",
          "name": "score",
          "type": "uint256"
        }
      ],
      "name": "submitScore",
      "outputs": [],
      "stateMutability": "nonpayable",
      "type": "function"
    }
  ],
  "bytecode": {
    "object": "0x608060405234801561001057600080fd5b50610249806100206000396000f3fe608060405234801561001057600080fd5b50600436106100365760003560e01c806329d8e8571461003b578063d3e6f03314610050575b600080fd5b61004e6100493660046101a2565b610092565b005b61008061005e3660046101d7565b6000602081815293815260408082208552928152828120909352825290205481565b60405190815260200160405180910390f35b60008381526020818152604080832033845282528083206001600160a01b038616845290915290205481900361010e5760405162461bcd60e51b815260206004820152601760248201527f53636f726520616c7265616479207375626d6974746564000000000000000000604482015260640160405180910390fd5b600083815260208181526040808320338085529083528184206001600160a01b03871680865290845293829020859055815187815292830152810191909152606081018290527f378f514d49e4abb7486bee29952af6519de11cb70a74cd68479f52457b0518f79060800160405180910390a1505050565b80356001600160a01b038116811461019d57600080fd5b919050565b6000806000606084860312156101b757600080fd5b833592506101c760208501610186565b9150604084013590509250925092565b6000806000606084860312156101ec57600080fd5b833592506101fc60208501610186565b915061020a60408501610186565b9050925092509256fea26469706673582212204bdce36ac7a3a9be50192bf2d852022465e1f70def35a5401c8a1ad4ba66a62364736f6c63430008140033",
    "linkReferences": {}
  },
  "methodIdentifiers": {
    "roundScores(uint256,address,address)": "d3e6f033",
    "submitScore(uint256,address,uint256)": "29d8e857"
  },
  "id": 15
}