{
  "abi": [
    {
      "inputs": [
        {
          "internalType": "address",
          "name": "_registrationAddress",
          "type": "address"
        }
      ],
      "stateMutability": "nonpayable",
      "type": "constructor"
    },
    {
      "inputs": [
        {
          "internalType": "uint256",
          "name": "round",
          "type": "uint256"
        }
      ],
      "name": "getModelsSubmittedInRound",
      "outputs": [
        {
          "components": [
            {
              "internalType": "address",
              "name": "trainer",
              "type": "address"
            },
            {
              "internalType": "string",
              "name": "modelWeightsPointer",
              "type": "string"
            },
            {
              "internalType": "uint256",
              "name": "dataPointsUsed",
              "type": "uint256"
            },
            {
              "internalType": "uint256",
              "name": "trainingAccuracy",
              "type": "uint256"
            },
            {
              "internalType": "uint256",
              "name": "testingAccuracy",
              "type": "uint256"
            }
          ],
          "internalType": "struct SubmitModel.Update[]",
          "name": "",
          "type": "tuple[]"
        }
      ],
      "stateMutability": "view",
      "type": "function"
    },
    {
      "inputs": [
        {
          "internalType": "uint256",
          "name": "_round",
          "type": "uint256"
        },
        {
          "internalType": "string",
          "name": "_modelWeightsPointer",
          "type": "string"
        },
        {
          "internalType": "uint256",
          "name": "_dataPointsUsed",
          "type": "uint256"
        },
        {
          "internalType": "uint256",
          "name": "_trainingAccuracy",
          "type": "uint256"
        },
        {
          "internalType": "uint256",
          "name": "_testingAccuracy",
          "type": "uint256"
        }
      ],
      "name": "submitUpdate",
      "outputs": [],
      "stateMutability": "nonpayable",
      "type": "function"
    },
    {
      "inputs": [
        {
          "internalType": "uint256",
          "name": "",
          "type": "uint256"
        },
        {
          "internalType": "address",
          "name": "",
          "type": "address"
        }
      ],
      "name": "updates",
      "outputs": [
        {
          "internalType": "address",
          "name": "trainer",
          "type": "address"
        },
        {
          "internalType": "string",
          "name": "modelWeightsPointer",
          "type": "string"
        },
        {
          "internalType": "uint256",
          "name": "dataPointsUsed",
          "type": "uint256"
        },
        {
          "internalType": "uint256",
          "name": "trainingAccuracy",
          "type": "uint256"
        },
        {
          "internalType": "uint256",
          "name": "testingAccuracy",
          "type": "uint256"
        }
      ],
      "stateMutability": "view",
      "type": "function"
    }
  ],
  "bytecode": {
    "object": "0x608060405234801561001057600080fd5b50604051610a8d380380610a8d83398101604081905261002f91610054565b600180546001600160a01b0319166001600160a01b0392909216919091179055610084565b60006020828403121561006657600080fd5b81516001600160a01b038116811461007d57600080fd5b9392505050565b6109fa806100936000396000f3fe608060405234801561001057600080fd5b50600436106100415760003560e01c806342519dbf146100465780635570b6ad1461006f578063954c0d4e14610084575b600080fd5b610059610054366004610504565b6100a8565b6040516100669190610563565b60405180910390f35b61008261007d36600461064a565b610330565b005b61009761009236600461071b565b61043b565b60405161006695949392919061074b565b60606000600160009054906101000a90046001600160a01b03166001600160a01b0316634958164a6040518163ffffffff1660e01b8152600401600060405180830381865afa1580156100ff573d6000803e3d6000fd5b505050506040513d6000823e601f3d908101601f19168201604052610127919081019061078c565b90506000815167ffffffffffffffff81111561014557610145610603565b6040519080825280602002602001820160405280156101b157816020015b61019e6040518060a0016040528060006001600160a01b03168152602001606081526020016000815260200160008152602001600081525090565b8152602001906001900390816101635790505b50905060005b82518110156103285760008086815260200190815260200160002060008483815181106101e6576101e661083e565b60200260200101516001600160a01b03166001600160a01b031681526020019081526020016000206040518060a00160405290816000820160009054906101000a90046001600160a01b03166001600160a01b03166001600160a01b0316815260200160018201805461025890610854565b80601f016020809104026020016040519081016040528092919081815260200182805461028490610854565b80156102d15780601f106102a6576101008083540402835291602001916102d1565b820191906000526020600020905b8154815290600101906020018083116102b457829003601f168201915b50505050508152602001600282015481526020016003820154815260200160048201548152505082828151811061030a5761030a61083e565b602002602001018190525080806103209061088e565b9150506101b7565b509392505050565b6000858152602081815260408083203384529091529020546001600160a01b0316156103a25760405162461bcd60e51b815260206004820152601860248201527f55706461746520616c7265616479207375626d69747465640000000000000000604482015260640160405180910390fd5b6040805160a081018252338082526020808301888152838501889052606084018790526080840186905260008a815280835285812093815292909152929020815181546001600160a01b0319166001600160a01b0390911617815591519091829160018201906104129082610904565b506040820151600282015560608201516003820155608090910151600490910155505050505050565b6000602081815292815260408082209093529081522080546001820180546001600160a01b03909216929161046f90610854565b80601f016020809104026020016040519081016040528092919081815260200182805461049b90610854565b80156104e85780601f106104bd576101008083540402835291602001916104e8565b820191906000526020600020905b8154815290600101906020018083116104cb57829003601f168201915b5050505050908060020154908060030154908060040154905085565b60006020828403121561051657600080fd5b5035919050565b6000815180845260005b8181101561054357602081850181015186830182015201610527565b506000602082860101526020601f19601f83011685010191505092915050565b60006020808301818452808551808352604092508286019150828160051b87010184880160005b838110156105f557888303603f19018552815180516001600160a01b031684528781015160a0898601819052906105c38287018261051d565b838a0151878b01526060808501519088015260809384015193909601929092525050938601939086019060010161058a565b509098975050505050505050565b634e487b7160e01b600052604160045260246000fd5b604051601f8201601f1916810167ffffffffffffffff8111828210171561064257610642610603565b604052919050565b600080600080600060a0868803121561066257600080fd5b8535945060208087013567ffffffffffffffff8082111561068257600080fd5b818901915089601f83011261069657600080fd5b8135818111156106a8576106a8610603565b6106ba601f8201601f19168501610619565b91508082528a848285010111156106d057600080fd5b80848401858401376000908201909301929092525094979496505050506040830135926060810135926080909101359150565b6001600160a01b038116811461071857600080fd5b50565b6000806040838503121561072e57600080fd5b82359150602083013561074081610703565b809150509250929050565b6001600160a01b038616815260a06020820181905260009061076f9083018761051d565b604083019590955250606081019290925260809091015292915050565b6000602080838503121561079f57600080fd5b825167ffffffffffffffff808211156107b757600080fd5b818501915085601f8301126107cb57600080fd5b8151818111156107dd576107dd610603565b8060051b91506107ee848301610619565b818152918301840191848101908884111561080857600080fd5b938501935b83851015610832578451925061082283610703565b828252938501939085019061080d565b98975050505050505050565b634e487b7160e01b600052603260045260246000fd5b600181811c9082168061086857607f821691505b60208210810361088857634e487b7160e01b600052602260045260246000fd5b50919050565b6000600182016108ae57634e487b7160e01b600052601160045260246000fd5b5060010190565b601f8211156108ff57600081815260208120601f850160051c810160208610156108dc5750805b601f850160051c820191505b818110156108fb578281556001016108e8565b5050505b505050565b815167ffffffffffffffff81111561091e5761091e610603565b6109328161092c8454610854565b846108b5565b602080601f831160018114610967576000841561094f5750858301515b600019600386901b1c1916600185901b1785556108fb565b600085815260208120601f198616915b8281101561099657888601518255948401946001909101908401610977565b50858210156109b45787850151600019600388901b60f8161c191681555b5050505050600190811b0190555056fea26469706673582212202e2965dad78ac923e77b584512f79123a57b0e5f687de7bc988313583089533f64736f6c63430008140033",
    "linkReferences": {}
  },
  "methodIdentifiers": {
    "getModelsSubmittedInRound(uint256)": "42519dbf",
    "submitUpdate(uint256,string,uint256,uint256,uint256)": "5570b6ad",
    "updates(uint256,address)": "954c0d4e"
  },
  "id": 16
}